{
  "contractName": "DappTokenCrowdsale",
  "abi": [
    {
      "constant": true,
      "inputs": [],
      "name": "hasClosed",
      "outputs": [
        {
          "name": "",
          "type": "bool"
        }
      ],
      "payable": false,
      "stateMutability": "view",
      "type": "function"
    },
    {
      "constant": true,
      "inputs": [],
      "name": "rate",
      "outputs": [
        {
          "name": "",
          "type": "uint256"
        }
      ],
      "payable": false,
      "stateMutability": "view",
      "type": "function"
    },
    {
      "constant": true,
      "inputs": [],
      "name": "cap",
      "outputs": [
        {
          "name": "",
          "type": "uint256"
        }
      ],
      "payable": false,
      "stateMutability": "view",
      "type": "function"
    },
    {
      "constant": true,
      "inputs": [],
      "name": "weiRaised",
      "outputs": [
        {
          "name": "",
          "type": "uint256"
        }
      ],
      "payable": false,
      "stateMutability": "view",
      "type": "function"
    },
    {
      "constant": true,
      "inputs": [
        {
          "name": "",
          "type": "address"
        }
      ],
      "name": "contributions",
      "outputs": [
        {
          "name": "",
          "type": "uint256"
        }
      ],
      "payable": false,
      "stateMutability": "view",
      "type": "function"
    },
    {
      "constant": true,
      "inputs": [],
      "name": "isOpen",
      "outputs": [
        {
          "name": "",
          "type": "bool"
        }
      ],
      "payable": false,
      "stateMutability": "view",
      "type": "function"
    },
    {
      "constant": true,
      "inputs": [],
      "name": "closingTime",
      "outputs": [
        {
          "name": "",
          "type": "uint256"
        }
      ],
      "payable": false,
      "stateMutability": "view",
      "type": "function"
    },
    {
      "constant": true,
      "inputs": [],
      "name": "capReached",
      "outputs": [
        {
          "name": "",
          "type": "bool"
        }
      ],
      "payable": false,
      "stateMutability": "view",
      "type": "function"
    },
    {
      "constant": true,
      "inputs": [],
      "name": "wallet",
      "outputs": [
        {
          "name": "",
          "type": "address"
        }
      ],
      "payable": false,
      "stateMutability": "view",
      "type": "function"
    },
    {
      "constant": true,
      "inputs": [],
      "name": "investorMinCap",
      "outputs": [
        {
          "name": "",
          "type": "uint256"
        }
      ],
      "payable": false,
      "stateMutability": "view",
      "type": "function"
    },
    {
      "constant": true,
      "inputs": [],
      "name": "openingTime",
      "outputs": [
        {
          "name": "",
          "type": "uint256"
        }
      ],
      "payable": false,
      "stateMutability": "view",
      "type": "function"
    },
    {
      "constant": false,
      "inputs": [
        {
          "name": "beneficiary",
          "type": "address"
        }
      ],
      "name": "buyTokens",
      "outputs": [],
      "payable": true,
      "stateMutability": "payable",
      "type": "function"
    },
    {
      "constant": true,
      "inputs": [],
      "name": "investorHardCap",
      "outputs": [
        {
          "name": "",
          "type": "uint256"
        }
      ],
      "payable": false,
      "stateMutability": "view",
      "type": "function"
    },
    {
      "constant": true,
      "inputs": [],
      "name": "token",
      "outputs": [
        {
          "name": "",
          "type": "address"
        }
      ],
      "payable": false,
      "stateMutability": "view",
      "type": "function"
    },
    {
      "inputs": [
        {
          "name": "_rate",
          "type": "uint256"
        },
        {
          "name": "_wallet",
          "type": "address"
        },
        {
          "name": "_token",
          "type": "address"
        },
        {
          "name": "_cap",
          "type": "uint256"
        },
        {
          "name": "_openingTime",
          "type": "uint256"
        },
        {
          "name": "_closingTime",
          "type": "uint256"
        }
      ],
      "payable": false,
      "stateMutability": "nonpayable",
      "type": "constructor"
    },
    {
      "payable": true,
      "stateMutability": "payable",
      "type": "fallback"
    },
    {
      "anonymous": false,
      "inputs": [
        {
          "indexed": false,
          "name": "prevClosingTime",
          "type": "uint256"
        },
        {
          "indexed": false,
          "name": "newClosingTime",
          "type": "uint256"
        }
      ],
      "name": "TimedCrowdsaleExtended",
      "type": "event"
    },
    {
      "anonymous": false,
      "inputs": [
        {
          "indexed": true,
          "name": "purchaser",
          "type": "address"
        },
        {
          "indexed": true,
          "name": "beneficiary",
          "type": "address"
        },
        {
          "indexed": false,
          "name": "value",
          "type": "uint256"
        },
        {
          "indexed": false,
          "name": "amount",
          "type": "uint256"
        }
      ],
      "name": "TokensPurchased",
      "type": "event"
    },
    {
      "constant": true,
      "inputs": [
        {
          "name": "_beneficiary",
          "type": "address"
        }
      ],
      "name": "getUserContribution",
      "outputs": [
        {
          "name": "",
          "type": "uint256"
        }
      ],
      "payable": false,
      "stateMutability": "view",
      "type": "function"
    }
  ],
  "bytecode": "0x608060405266071afd498d00006007556802b5e3af16b188000060085534801561002857600080fd5b5060405160c0806112d2833981018060405260c081101561004857600080fd5b8101908080519060200190929190805190602001909291908051906020019092919080519060200190929190805190602001909291908051906020019092919050505081818488888860016000806101000a81548160ff021916908315150217905550600083111515610123576040517f08c379a00000000000000000000000000000000000000000000000000000000081526004018080602001828103825260148152602001807f43726f776473616c653a2072617465206973203000000000000000000000000081525060200191505060405180910390fd5b600073ffffffffffffffffffffffffffffffffffffffff168273ffffffffffffffffffffffffffffffffffffffff16141515156101ab576040517f08c379a00000000000000000000000000000000000000000000000000000000081526004018080602001828103825260258152602001806112ad6025913960400191505060405180910390fd5b600073ffffffffffffffffffffffffffffffffffffffff168173ffffffffffffffffffffffffffffffffffffffff1614151515610233576040517f08c379a00000000000000000000000000000000000000000000000000000000081526004018080602001828103825260248152602001806112896024913960400191505060405180910390fd5b8260028190555081600160006101000a81548173ffffffffffffffffffffffffffffffffffffffff021916908373ffffffffffffffffffffffffffffffffffffffff16021790555080600060016101000a81548173ffffffffffffffffffffffffffffffffffffffff021916908373ffffffffffffffffffffffffffffffffffffffff160217905550505050600081111515610337576040517f08c379a00000000000000000000000000000000000000000000000000000000081526004018080602001828103825260198152602001807f43617070656443726f776473616c653a2063617020697320300000000000000081525060200191505060405180910390fd5b806004819055505042821015151561039a576040517f08c379a000000000000000000000000000000000000000000000000000000000815260040180806020018281038252603381526020018061121f6033913960400191505060405180910390fd5b81811115156103f4576040517f08c379a00000000000000000000000000000000000000000000000000000000081526004018080602001828103825260378152602001806112526037913960400191505060405180910390fd5b81600581905550806006819055505050505050505050610e06806104196000396000f3fe6080604052600436106100e85760003560e01c80634f9359451161008a578063bb8b2b4711610059578063bb8b2b4714610345578063ec8ac4d8146103aa578063ed5db874146103ee578063fc0c546a14610419576100e8565b80634f93594514610269578063521eb27314610298578063b25d7f54146102ef578063b7a8807c1461031a576100e8565b80634042b66f116100c65780634042b66f1461017f57806342e94c90146101aa57806347535d7b1461020f5780634b6753bc1461023e576100e8565b80631515bc2b146100fa5780632c4e722e14610129578063355274ea14610154575b6100f86100f3610470565b610478565b005b34801561010657600080fd5b5061010f610605565b604051808215151515815260200191505060405180910390f35b34801561013557600080fd5b5061013e610611565b6040518082815260200191505060405180910390f35b34801561016057600080fd5b5061016961061b565b6040518082815260200191505060405180910390f35b34801561018b57600080fd5b50610194610625565b6040518082815260200191505060405180910390f35b3480156101b657600080fd5b506101f9600480360360208110156101cd57600080fd5b81019080803573ffffffffffffffffffffffffffffffffffffffff16906020019092919050505061062f565b6040518082815260200191505060405180910390f35b34801561021b57600080fd5b50610224610647565b604051808215151515815260200191505060405180910390f35b34801561024a57600080fd5b50610253610662565b6040518082815260200191505060405180910390f35b34801561027557600080fd5b5061027e61066c565b604051808215151515815260200191505060405180910390f35b3480156102a457600080fd5b506102ad610680565b604051808273ffffffffffffffffffffffffffffffffffffffff1673ffffffffffffffffffffffffffffffffffffffff16815260200191505060405180910390f35b3480156102fb57600080fd5b506103046106aa565b6040518082815260200191505060405180910390f35b34801561032657600080fd5b5061032f6106b0565b6040518082815260200191505060405180910390f35b34801561035157600080fd5b506103946004803603602081101561036857600080fd5b81019080803573ffffffffffffffffffffffffffffffffffffffff1690602001909291905050506106ba565b6040518082815260200191505060405180910390f35b6103ec600480360360208110156103c057600080fd5b81019080803573ffffffffffffffffffffffffffffffffffffffff169060200190929190505050610478565b005b3480156103fa57600080fd5b50610403610703565b6040518082815260200191505060405180910390f35b34801561042557600080fd5b5061042e610709565b604051808273ffffffffffffffffffffffffffffffffffffffff1673ffffffffffffffffffffffffffffffffffffffff16815260200191505060405180910390f35b600033905090565b6000809054906101000a900460ff1615156104fb576040517f08c379a000000000000000000000000000000000000000000000000000000000815260040180806020018281038252601f8152602001807f5265656e7472616e637947756172643a207265656e7472616e742063616c6c0081525060200191505060405180910390fd5b60008060006101000a81548160ff02191690831515021790555060003490506105248282610732565b600061052f826107bc565b9050610546826003546107da90919063ffffffff16565b6003819055506105568382610864565b8273ffffffffffffffffffffffffffffffffffffffff16610575610470565b73ffffffffffffffffffffffffffffffffffffffff167f6faf93231a456e552dbc9961f58d9713ee4f2e69d15f1975b050ef0911053a7b8484604051808381526020018281526020019250505060405180910390a36105d48383610872565b6105dc610921565b6105e6838361098c565b505060016000806101000a81548160ff02191690831515021790555050565b60006006544211905090565b6000600254905090565b6000600454905090565b6000600354905090565b60096020528060005260406000206000915090505481565b6000600554421015801561065d57506006544211155b905090565b6000600654905090565b6000600454610679610625565b1015905090565b6000600160009054906101000a900473ffffffffffffffffffffffffffffffffffffffff16905090565b60075481565b6000600554905090565b6000600960008373ffffffffffffffffffffffffffffffffffffffff1673ffffffffffffffffffffffffffffffffffffffff168152602001908152602001600020549050919050565b60085481565b60008060019054906101000a900473ffffffffffffffffffffffffffffffffffffffff16905090565b61073c8282610990565b6000600960008473ffffffffffffffffffffffffffffffffffffffff1673ffffffffffffffffffffffffffffffffffffffff168152602001908152602001600020549050600061079583836107da90919063ffffffff16565b905060075481101580156107ab57506008548111155b15156107b657600080fd5b50505050565b60006107d360025483610a1a90919063ffffffff16565b9050919050565b600080828401905083811015151561085a576040517f08c379a000000000000000000000000000000000000000000000000000000000815260040180806020018281038252601b8152602001807f536166654d6174683a206164646974696f6e206f766572666c6f77000000000081525060200191505060405180910390fd5b8091505092915050565b61086e8282610aa4565b5050565b61087c8282610be5565b6000600960008473ffffffffffffffffffffffffffffffffffffffff1673ffffffffffffffffffffffffffffffffffffffff16815260200190815260200160002054905060006108d583836107da90919063ffffffff16565b905080600960008673ffffffffffffffffffffffffffffffffffffffff1673ffffffffffffffffffffffffffffffffffffffff1681526020019081526020016000208190555050505050565b600160009054906101000a900473ffffffffffffffffffffffffffffffffffffffff1673ffffffffffffffffffffffffffffffffffffffff166108fc349081150290604051600060405180830381858888f19350505050158015610989573d6000803e3d6000fd5b50565b5050565b610998610647565b1515610a0c576040517f08c379a00000000000000000000000000000000000000000000000000000000081526004018080602001828103825260188152602001807f54696d656443726f776473616c653a206e6f74206f70656e000000000000000081525060200191505060405180910390fd5b610a168282610be9565b5050565b600080831415610a2d5760009050610a9e565b60008284029050828482811515610a4057fe5b04141515610a99576040517f08c379a0000000000000000000000000000000000000000000000000000000008152600401808060200182810382526021815260200180610d906021913960400191505060405180910390fd5b809150505b92915050565b610aac610709565b73ffffffffffffffffffffffffffffffffffffffff166340c10f1983836040518363ffffffff1660e01b8152600401808373ffffffffffffffffffffffffffffffffffffffff1673ffffffffffffffffffffffffffffffffffffffff16815260200182815260200192505050602060405180830381600087803b158015610b3257600080fd5b505af1158015610b46573d6000803e3d6000fd5b505050506040513d6020811015610b5c57600080fd5b81019080805190602001909291905050501515610be1576040517f08c379a000000000000000000000000000000000000000000000000000000000815260040180806020018281038252601f8152602001807f4d696e74656443726f776473616c653a206d696e74696e67206661696c65640081525060200191505060405180910390fd5b5050565b5050565b610bf38282610c8a565b600454610c1082610c02610625565b6107da90919063ffffffff16565b11151515610c86576040517f08c379a000000000000000000000000000000000000000000000000000000000815260040180806020018281038252601d8152602001807f43617070656443726f776473616c653a2063617020657863656564656400000081525060200191505060405180910390fd5b5050565b600073ffffffffffffffffffffffffffffffffffffffff168273ffffffffffffffffffffffffffffffffffffffff1614151515610d12576040517f08c379a000000000000000000000000000000000000000000000000000000000815260040180806020018281038252602a815260200180610db1602a913960400191505060405180910390fd5b60008114151515610d8b576040517f08c379a00000000000000000000000000000000000000000000000000000000081526004018080602001828103825260198152602001807f43726f776473616c653a20776569416d6f756e7420697320300000000000000081525060200191505060405180910390fd5b505056fe536166654d6174683a206d756c7469706c69636174696f6e206f766572666c6f7743726f776473616c653a2062656e656669636961727920697320746865207a65726f2061646472657373a165627a7a72305820764906bd791a27b3dd315703ac5e80ff7142ccb1f0ac42f30bcee4208efd8529002954696d656443726f776473616c653a206f70656e696e672074696d65206973206265666f72652063757272656e742074696d6554696d656443726f776473616c653a206f70656e696e672074696d65206973206e6f74206265666f726520636c6f73696e672074696d6543726f776473616c653a20746f6b656e20697320746865207a65726f206164647265737343726f776473616c653a2077616c6c657420697320746865207a65726f2061646472657373",
  "source": "// SPDX-License-Identifier: MIT\r\npragma solidity >=0.4.22 <0.9.0;\r\n\r\nimport \"openzeppelin-solidity/contracts/crowdsale/Crowdsale.sol\";\r\nimport \"openzeppelin-solidity/contracts/crowdsale/emission/MintedCrowdsale.sol\";\r\nimport \"openzeppelin-solidity/contracts/crowdsale/validation/CappedCrowdsale.sol\";\r\nimport \"openzeppelin-solidity/contracts/crowdsale/validation/TimedCrowdsale.sol\";\r\n\r\ncontract DappTokenCrowdsale is\r\n  Crowdsale,\r\n  MintedCrowdsale,\r\n  CappedCrowdsale,\r\n  TimedCrowdsale\r\n{\r\n  // Track investor contribution\r\n  uint256 public investorMinCap = 2000000000000000; // Minimum investor contribution - 0.002 Ether\r\n  uint256 public investorHardCap = 50000000000000000000; // Maximum investor contribution - 50 Ether\r\n  mapping(address => uint256) public contributions;\r\n\r\n  constructor(\r\n    uint256 _rate,\r\n    address payable _wallet,\r\n    IERC20 _token,\r\n    uint256 _cap,\r\n    uint256 _openingTime,\r\n    uint256 _closingTime\r\n  )\r\n    public\r\n    Crowdsale(_rate, _wallet, _token)\r\n    CappedCrowdsale(_cap)\r\n    TimedCrowdsale(_openingTime, _closingTime)\r\n  {}\r\n\r\n  /**\r\n   * @dev Returns the amount contributed so far by a specific user.\r\n   * @param _beneficiary Address of contributor\r\n   * @return User contribution so far\r\n   */\r\n  function getUserContribution(address _beneficiary)\r\n    public\r\n    view\r\n    returns (uint256)\r\n  {\r\n    return contributions[_beneficiary];\r\n  }\r\n\r\n  /**\r\n   * @dev Extend parent behavior requiring purchase to respect inveestor min/max funding cap.\r\n   * @param _beneficiary Token purchaser\r\n   * @param _weiAmount Amount of wei contributed\r\n   */\r\n  function _preValidatePurchase(address _beneficiary, uint256 _weiAmount)\r\n    internal\r\n    view\r\n  {\r\n    super._preValidatePurchase(_beneficiary, _weiAmount);\r\n    uint256 _existingContribution = contributions[_beneficiary];\r\n    uint256 _newContribution = _existingContribution.add(_weiAmount);\r\n    require(\r\n      _newContribution >= investorMinCap && _newContribution <= investorHardCap\r\n    );\r\n  }\r\n\r\n  function _updatePurchasingState(address _beneficiary, uint256 _weiAmount)\r\n    internal\r\n  {\r\n    super._updatePurchasingState(_beneficiary, _weiAmount);\r\n    uint256 _existingContribution = contributions[_beneficiary];\r\n    uint256 _newContribution = _existingContribution.add(_weiAmount);\r\n    contributions[_beneficiary] = _newContribution;\r\n  }\r\n}\r\n",
  "sourcePath": "D:/ico_irl/contracts/DappTokenCrowdsale.sol",
  "compiler": {
    "name": "solc",
    "version": "0.5.5+commit.47a71e8f.Emscripten.clang"
  },
  "schemaVersion": "3.4.1",
  "updatedAt": "2021-06-07T06:26:30.533Z",
  "devdoc": {
    "methods": {
      "buyTokens(address)": {
        "details": "low level token purchase ***DO NOT OVERRIDE*** This function has a non-reentrancy guard, so it shouldn't be called by another `nonReentrant` function.",
        "params": {
          "beneficiary": "Recipient of the token purchase"
        }
      },
      "cap()": {
        "return": "the cap of the crowdsale."
      },
      "capReached()": {
        "details": "Checks whether the cap has been reached.",
        "return": "Whether the cap was reached"
      },
      "closingTime()": {
        "return": "the crowdsale closing time."
      },
      "getUserContribution(address)": {
        "details": "Returns the amount contributed so far by a specific user.\r",
        "params": {
          "_beneficiary": "Address of contributor\r"
        },
        "return": "User contribution so far\r"
      },
      "hasClosed()": {
        "details": "Checks whether the period in which the crowdsale is open has already elapsed.",
        "return": "Whether crowdsale period has elapsed"
      },
      "isOpen()": {
        "return": "true if the crowdsale is open, false otherwise."
      },
      "openingTime()": {
        "return": "the crowdsale opening time."
      },
      "rate()": {
        "return": "the number of token units a buyer gets per wei."
      },
      "token()": {
        "return": "the token being sold."
      },
      "wallet()": {
        "return": "the address where funds are collected."
      },
      "weiRaised()": {
        "return": "the amount of wei raised."
      }
    }
  },
  "userdoc": {
    "methods": {}
  }
}